{
  "_format": "hh-sol-artifact-1",
  "contractName": "AMMWithOracle",
  "sourceName": "contracts/AMMWithOracle.sol",
  "abi": [
    {
      "inputs": [
        {
          "internalType": "address",
          "name": "_tokenA",
          "type": "address"
        },
        {
          "internalType": "address",
          "name": "_tokenB",
          "type": "address"
        },
        {
          "internalType": "address",
          "name": "_oracle",
          "type": "address"
        }
      ],
      "stateMutability": "nonpayable",
      "type": "constructor"
    },
    {
      "inputs": [],
      "name": "ReentrancyGuardReentrantCall",
      "type": "error"
    },
    {
      "anonymous": false,
      "inputs": [
        {
          "indexed": true,
          "internalType": "address",
          "name": "user",
          "type": "address"
        },
        {
          "indexed": false,
          "internalType": "uint256",
          "name": "amountA",
          "type": "uint256"
        },
        {
          "indexed": false,
          "internalType": "uint256",
          "name": "amountB",
          "type": "uint256"
        }
      ],
      "name": "LiquidityAdded",
      "type": "event"
    },
    {
      "anonymous": false,
      "inputs": [
        {
          "indexed": true,
          "internalType": "address",
          "name": "user",
          "type": "address"
        },
        {
          "indexed": false,
          "internalType": "uint256",
          "name": "amountA",
          "type": "uint256"
        },
        {
          "indexed": false,
          "internalType": "uint256",
          "name": "amountB",
          "type": "uint256"
        }
      ],
      "name": "LiquidityRemoved",
      "type": "event"
    },
    {
      "anonymous": false,
      "inputs": [
        {
          "indexed": true,
          "internalType": "address",
          "name": "user",
          "type": "address"
        },
        {
          "indexed": false,
          "internalType": "address",
          "name": "inputToken",
          "type": "address"
        },
        {
          "indexed": false,
          "internalType": "uint256",
          "name": "inputAmount",
          "type": "uint256"
        },
        {
          "indexed": false,
          "internalType": "uint256",
          "name": "outputAmount",
          "type": "uint256"
        }
      ],
      "name": "Swapped",
      "type": "event"
    },
    {
      "inputs": [],
      "name": "FEE_PERCENT",
      "outputs": [
        {
          "internalType": "uint256",
          "name": "",
          "type": "uint256"
        }
      ],
      "stateMutability": "view",
      "type": "function"
    },
    {
      "inputs": [
        {
          "internalType": "uint256",
          "name": "amountA",
          "type": "uint256"
        },
        {
          "internalType": "uint256",
          "name": "amountB",
          "type": "uint256"
        }
      ],
      "name": "addLiquidity",
      "outputs": [],
      "stateMutability": "nonpayable",
      "type": "function"
    },
    {
      "inputs": [],
      "name": "getPoolPrice",
      "outputs": [
        {
          "internalType": "uint256",
          "name": "",
          "type": "uint256"
        }
      ],
      "stateMutability": "view",
      "type": "function"
    },
    {
      "inputs": [],
      "name": "getPriceFromOracle",
      "outputs": [
        {
          "internalType": "int256",
          "name": "",
          "type": "int256"
        }
      ],
      "stateMutability": "view",
      "type": "function"
    },
    {
      "inputs": [],
      "name": "priceOracle",
      "outputs": [
        {
          "internalType": "contract AggregatorV3Interface",
          "name": "",
          "type": "address"
        }
      ],
      "stateMutability": "view",
      "type": "function"
    },
    {
      "inputs": [
        {
          "internalType": "uint256",
          "name": "sharePercent",
          "type": "uint256"
        }
      ],
      "name": "removeLiquidity",
      "outputs": [],
      "stateMutability": "nonpayable",
      "type": "function"
    },
    {
      "inputs": [],
      "name": "reserveA",
      "outputs": [
        {
          "internalType": "uint256",
          "name": "",
          "type": "uint256"
        }
      ],
      "stateMutability": "view",
      "type": "function"
    },
    {
      "inputs": [],
      "name": "reserveB",
      "outputs": [
        {
          "internalType": "uint256",
          "name": "",
          "type": "uint256"
        }
      ],
      "stateMutability": "view",
      "type": "function"
    },
    {
      "inputs": [
        {
          "internalType": "address",
          "name": "inputToken",
          "type": "address"
        },
        {
          "internalType": "uint256",
          "name": "inputAmount",
          "type": "uint256"
        }
      ],
      "name": "swap",
      "outputs": [
        {
          "internalType": "uint256",
          "name": "outputAmount",
          "type": "uint256"
        }
      ],
      "stateMutability": "nonpayable",
      "type": "function"
    },
    {
      "inputs": [],
      "name": "tokenA",
      "outputs": [
        {
          "internalType": "contract IERC20",
          "name": "",
          "type": "address"
        }
      ],
      "stateMutability": "view",
      "type": "function"
    },
    {
      "inputs": [],
      "name": "tokenB",
      "outputs": [
        {
          "internalType": "contract IERC20",
          "name": "",
          "type": "address"
        }
      ],
      "stateMutability": "view",
      "type": "function"
    }
  ],
  "bytecode": "0x608060405234801561001057600080fd5b506040516117a53803806117a583398181016040528101906100329190610168565b600160008190555082600160006101000a81548173ffffffffffffffffffffffffffffffffffffffff021916908373ffffffffffffffffffffffffffffffffffffffff16021790555081600260006101000a81548173ffffffffffffffffffffffffffffffffffffffff021916908373ffffffffffffffffffffffffffffffffffffffff16021790555080600560006101000a81548173ffffffffffffffffffffffffffffffffffffffff021916908373ffffffffffffffffffffffffffffffffffffffff1602179055505050506101bb565b600080fd5b600073ffffffffffffffffffffffffffffffffffffffff82169050919050565b60006101358261010a565b9050919050565b6101458161012a565b811461015057600080fd5b50565b6000815190506101628161013c565b92915050565b60008060006060848603121561018157610180610105565b5b600061018f86828701610153565b93505060206101a086828701610153565b92505060406101b186828701610153565b9150509250925092565b6115db806101ca6000396000f3fe608060405234801561001057600080fd5b50600436106100a95760003560e01c8063885a08e011610071578063885a08e0146101445780639c8f9f23146101625780639cd441da1461017e578063d004f0f71461019a578063dc5fa6c5146101ca578063eaf98d23146101e8576100a9565b80630fc63d10146100ae57806319e36f3b146100cc5780632630c12f146100ea57806338f5a491146101085780635f64b55b14610126575b600080fd5b6100b6610206565b6040516100c39190610dc6565b60405180910390f35b6100d461022c565b6040516100e19190610dfa565b60405180910390f35b6100f2610232565b6040516100ff9190610e36565b60405180910390f35b610110610258565b60405161011d9190610e6a565b60405180910390f35b61012e6102f9565b60405161013b9190610dc6565b60405180910390f35b61014c61031f565b6040516101599190610dfa565b60405180910390f35b61017c60048036038101906101779190610eb6565b61036a565b005b61019860048036038101906101939190610ee3565b61061e565b005b6101b460048036038101906101af9190610f61565b610849565b6040516101c19190610dfa565b60405180910390f35b6101d2610cec565b6040516101df9190610dfa565b60405180910390f35b6101f0610cf2565b6040516101fd9190610dfa565b60405180910390f35b600160009054906101000a900473ffffffffffffffffffffffffffffffffffffffff1681565b60045481565b600560009054906101000a900473ffffffffffffffffffffffffffffffffffffffff1681565b600080600560009054906101000a900473ffffffffffffffffffffffffffffffffffffffff1673ffffffffffffffffffffffffffffffffffffffff1663feaf968c6040518163ffffffff1660e01b815260040160a060405180830381865afa1580156102c8573d6000803e3d6000fd5b505050506040513d601f19601f820116820180604052508101906102ec9190611024565b5050509150508091505090565b600260009054906101000a900473ffffffffffffffffffffffffffffffffffffffff1681565b600080600354148061033357506000600454145b156103415760009050610367565b600354670de0b6b3a764000060045461035a91906110ce565b610364919061113f565b90505b90565b610372610cf7565b600081118015610383575060648111155b6103c2576040517f08c379a00000000000000000000000000000000000000000000000000000000081526004016103b9906111cd565b60405180910390fd5b60006064826003546103d491906110ce565b6103de919061113f565b905060006064836004546103f291906110ce565b6103fc919061113f565b905060008211801561040e5750600081115b61044d576040517f08c379a000000000000000000000000000000000000000000000000000000000815260040161044490611239565b60405180910390fd5b816003600082825461045f9190611259565b9250508190555080600460008282546104789190611259565b92505081905550600160009054906101000a900473ffffffffffffffffffffffffffffffffffffffff1673ffffffffffffffffffffffffffffffffffffffff1663a9059cbb33846040518363ffffffff1660e01b81526004016104dc92919061129c565b6020604051808303816000875af11580156104fb573d6000803e3d6000fd5b505050506040513d601f19601f8201168201806040525081019061051f91906112fd565b50600260009054906101000a900473ffffffffffffffffffffffffffffffffffffffff1673ffffffffffffffffffffffffffffffffffffffff1663a9059cbb33836040518363ffffffff1660e01b815260040161057d92919061129c565b6020604051808303816000875af115801561059c573d6000803e3d6000fd5b505050506040513d601f19601f820116820180604052508101906105c091906112fd565b503373ffffffffffffffffffffffffffffffffffffffff167f96cd817c6329656790ef8fba7675405193677d39619571282f5e21f3a98cd059838360405161060992919061132a565b60405180910390a2505061061b610d3d565b50565b610626610cf7565b6000821180156106365750600081115b610675576040517f08c379a000000000000000000000000000000000000000000000000000000000815260040161066c9061139f565b60405180910390fd5b600160009054906101000a900473ffffffffffffffffffffffffffffffffffffffff1673ffffffffffffffffffffffffffffffffffffffff166323b872dd3330856040518463ffffffff1660e01b81526004016106d4939291906113bf565b6020604051808303816000875af11580156106f3573d6000803e3d6000fd5b505050506040513d601f19601f8201168201806040525081019061071791906112fd565b50600260009054906101000a900473ffffffffffffffffffffffffffffffffffffffff1673ffffffffffffffffffffffffffffffffffffffff166323b872dd3330846040518463ffffffff1660e01b8152600401610777939291906113bf565b6020604051808303816000875af1158015610796573d6000803e3d6000fd5b505050506040513d601f19601f820116820180604052508101906107ba91906112fd565b5081600360008282546107cd91906113f6565b9250508190555080600460008282546107e691906113f6565b925050819055503373ffffffffffffffffffffffffffffffffffffffff167fac1d76749e5447b7b16f5ab61447e1bd502f3bb4807af3b28e620d1700a6ee45838360405161083592919061132a565b60405180910390a2610845610d3d565b5050565b6000610853610cf7565b60008211610896576040517f08c379a000000000000000000000000000000000000000000000000000000000815260040161088d90611476565b60405180910390fd5b600160009054906101000a900473ffffffffffffffffffffffffffffffffffffffff1673ffffffffffffffffffffffffffffffffffffffff168373ffffffffffffffffffffffffffffffffffffffff16148061093f5750600260009054906101000a900473ffffffffffffffffffffffffffffffffffffffff1673ffffffffffffffffffffffffffffffffffffffff168373ffffffffffffffffffffffffffffffffffffffff16145b61097e576040517f08c379a0000000000000000000000000000000000000000000000000000000008152600401610975906114e2565b60405180910390fd5b6000600160009054906101000a900473ffffffffffffffffffffffffffffffffffffffff1673ffffffffffffffffffffffffffffffffffffffff168473ffffffffffffffffffffffffffffffffffffffff1614905060008060008084610a2f57600260009054906101000a900473ffffffffffffffffffffffffffffffffffffffff16600160009054906101000a900473ffffffffffffffffffffffffffffffffffffffff16600454600354610a7c565b600160009054906101000a900473ffffffffffffffffffffffffffffffffffffffff16600260009054906101000a900473ffffffffffffffffffffffffffffffffffffffff166003546004545b93509350935093508373ffffffffffffffffffffffffffffffffffffffff166323b872dd33308a6040518463ffffffff1660e01b8152600401610ac1939291906113bf565b6020604051808303816000875af1158015610ae0573d6000803e3d6000fd5b505050506040513d601f19601f82011682018060405250810190610b0491906112fd565b5060006103e860036103e8610b199190611259565b89610b2491906110ce565b610b2e919061113f565b90508083610b3c91906113f6565b8282610b4891906110ce565b610b52919061113f565b965060008711610b97576040517f08c379a0000000000000000000000000000000000000000000000000000000008152600401610b8e9061154e565b60405180910390fd5b8373ffffffffffffffffffffffffffffffffffffffff1663a9059cbb33896040518363ffffffff1660e01b8152600401610bd292919061129c565b6020604051808303816000875af1158015610bf1573d6000803e3d6000fd5b505050506040513d601f19601f82011682018060405250810190610c1591906112fd565b508515610c53578760036000828254610c2e91906113f6565b925050819055508660046000828254610c479190611259565b92505081905550610c86565b8760046000828254610c6591906113f6565b925050819055508660036000828254610c7e9190611259565b925050819055505b3373ffffffffffffffffffffffffffffffffffffffff167fa078c4190abe07940190effc1846be0ccf03ad6007bc9e93f9697d0b460befbb8a8a8a604051610cd09392919061156e565b60405180910390a2505050505050610ce6610d3d565b92915050565b60035481565b600381565b600260005403610d33576040517f3ee5aeb500000000000000000000000000000000000000000000000000000000815260040160405180910390fd5b6002600081905550565b6001600081905550565b600073ffffffffffffffffffffffffffffffffffffffff82169050919050565b6000819050919050565b6000610d8c610d87610d8284610d47565b610d67565b610d47565b9050919050565b6000610d9e82610d71565b9050919050565b6000610db082610d93565b9050919050565b610dc081610da5565b82525050565b6000602082019050610ddb6000830184610db7565b92915050565b6000819050919050565b610df481610de1565b82525050565b6000602082019050610e0f6000830184610deb565b92915050565b6000610e2082610d93565b9050919050565b610e3081610e15565b82525050565b6000602082019050610e4b6000830184610e27565b92915050565b6000819050919050565b610e6481610e51565b82525050565b6000602082019050610e7f6000830184610e5b565b92915050565b600080fd5b610e9381610de1565b8114610e9e57600080fd5b50565b600081359050610eb081610e8a565b92915050565b600060208284031215610ecc57610ecb610e85565b5b6000610eda84828501610ea1565b91505092915050565b60008060408385031215610efa57610ef9610e85565b5b6000610f0885828601610ea1565b9250506020610f1985828601610ea1565b9150509250929050565b6000610f2e82610d47565b9050919050565b610f3e81610f23565b8114610f4957600080fd5b50565b600081359050610f5b81610f35565b92915050565b60008060408385031215610f7857610f77610e85565b5b6000610f8685828601610f4c565b9250506020610f9785828601610ea1565b9150509250929050565b600069ffffffffffffffffffff82169050919050565b610fc081610fa1565b8114610fcb57600080fd5b50565b600081519050610fdd81610fb7565b92915050565b610fec81610e51565b8114610ff757600080fd5b50565b60008151905061100981610fe3565b92915050565b60008151905061101e81610e8a565b92915050565b600080600080600060a086880312156110405761103f610e85565b5b600061104e88828901610fce565b955050602061105f88828901610ffa565b94505060406110708882890161100f565b93505060606110818882890161100f565b925050608061109288828901610fce565b9150509295509295909350565b7f4e487b7100000000000000000000000000000000000000000000000000000000600052601160045260246000fd5b60006110d982610de1565b91506110e483610de1565b92508282026110f281610de1565b915082820484148315176111095761110861109f565b5b5092915050565b7f4e487b7100000000000000000000000000000000000000000000000000000000600052601260045260246000fd5b600061114a82610de1565b915061115583610de1565b92508261116557611164611110565b5b828204905092915050565b600082825260208201905092915050565b7f496e76616c696420736861726500000000000000000000000000000000000000600082015250565b60006111b7600d83611170565b91506111c282611181565b602082019050919050565b600060208201905081810360008301526111e6816111aa565b9050919050565b7f496e73756666696369656e74206c697175696469747900000000000000000000600082015250565b6000611223601683611170565b915061122e826111ed565b602082019050919050565b6000602082019050818103600083015261125281611216565b9050919050565b600061126482610de1565b915061126f83610de1565b92508282039050818111156112875761128661109f565b5b92915050565b61129681610f23565b82525050565b60006040820190506112b1600083018561128d565b6112be6020830184610deb565b9392505050565b60008115159050919050565b6112da816112c5565b81146112e557600080fd5b50565b6000815190506112f7816112d1565b92915050565b60006020828403121561131357611312610e85565b5b6000611321848285016112e8565b91505092915050565b600060408201905061133f6000830185610deb565b61134c6020830184610deb565b9392505050565b7f496e76616c696420616d6f756e74730000000000000000000000000000000000600082015250565b6000611389600f83611170565b915061139482611353565b602082019050919050565b600060208201905081810360008301526113b88161137c565b9050919050565b60006060820190506113d4600083018661128d565b6113e1602083018561128d565b6113ee6040830184610deb565b949350505050565b600061140182610de1565b915061140c83610de1565b92508282019050808211156114245761142361109f565b5b92915050565b7f5a65726f20696e70757400000000000000000000000000000000000000000000600082015250565b6000611460600a83611170565b915061146b8261142a565b602082019050919050565b6000602082019050818103600083015261148f81611453565b9050919050565b7f496e76616c696420746f6b656e00000000000000000000000000000000000000600082015250565b60006114cc600d83611170565b91506114d782611496565b602082019050919050565b600060208201905081810360008301526114fb816114bf565b9050919050565b7f496e73756666696369656e74206f757470757400000000000000000000000000600082015250565b6000611538601383611170565b915061154382611502565b602082019050919050565b600060208201905081810360008301526115678161152b565b9050919050565b6000606082019050611583600083018661128d565b6115906020830185610deb565b61159d6040830184610deb565b94935050505056fea264697066735822122061fc714b235681417a061e364cba79cb12c22032163b248fbb564a0a7390319c64736f6c634300081c0033",
  "linkReferences": {},
  "deployedLinkReferences": {}
}