{
  "_format": "hh-sol-artifact-1",
  "contractName": "MockOracle",
  "sourceName": "contracts/MockOracle.sol",
  "abi": [
    {
      "inputs": [
        {
          "internalType": "int256",
          "name": "_initialPrice",
          "type": "int256"
        }
      ],
      "stateMutability": "nonpayable",
      "type": "constructor"
    },
    {
      "inputs": [],
      "name": "latestRoundData",
      "outputs": [
        {
          "internalType": "uint80",
          "name": "roundId",
          "type": "uint80"
        },
        {
          "internalType": "int256",
          "name": "answer",
          "type": "int256"
        },
        {
          "internalType": "uint256",
          "name": "startedAt",
          "type": "uint256"
        },
        {
          "internalType": "uint256",
          "name": "updatedAt_",
          "type": "uint256"
        },
        {
          "internalType": "uint80",
          "name": "answeredInRound",
          "type": "uint80"
        }
      ],
      "stateMutability": "view",
      "type": "function"
    },
    {
      "inputs": [
        {
          "internalType": "int256",
          "name": "_newPrice",
          "type": "int256"
        }
      ],
      "name": "setPrice",
      "outputs": [],
      "stateMutability": "nonpayable",
      "type": "function"
    }
  ],
  "bytecode": "0x6080604052348015600f57600080fd5b5060405161029b38038061029b8339818101604052810190602f91906078565b80600081905550426001819055505060a0565b600080fd5b6000819050919050565b6058816047565b8114606257600080fd5b50565b6000815190506072816051565b92915050565b600060208284031215608b57608a6042565b5b60006097848285016065565b91505092915050565b6101ec806100af6000396000f3fe608060405234801561001057600080fd5b50600436106100365760003560e01c8063f7a308061461003b578063feaf968c14610057575b600080fd5b610055600480360381019061005091906100e9565b610079565b005b61005f61008a565b604051610070959493929190610163565b60405180910390f35b806000819055504260018190555050565b60008060008060008060005460006001546000945094509450945094509091929394565b600080fd5b6000819050919050565b6100c6816100b3565b81146100d157600080fd5b50565b6000813590506100e3816100bd565b92915050565b6000602082840312156100ff576100fe6100ae565b5b600061010d848285016100d4565b91505092915050565b600069ffffffffffffffffffff82169050919050565b61013581610116565b82525050565b610144816100b3565b82525050565b6000819050919050565b61015d8161014a565b82525050565b600060a082019050610178600083018861012c565b610185602083018761013b565b6101926040830186610154565b61019f6060830185610154565b6101ac608083018461012c565b969550505050505056fea264697066735822122056526293eac9c4c368abdd2fc1deb5363f69324c7ab3990ef6aaba815ff3c39764736f6c634300081c0033",
  "linkReferences": {},
  "deployedLinkReferences": {}
}